{
  "_format": "hh-sol-artifact-1",
  "contractName": "Sink",
  "sourceName": "contracts/ReentrancyAttack.sol",
  "abi": [
    {
      "inputs": [
        {
          "internalType": "address payable",
          "name": "_ad_deploied",
          "type": "address"
        }
      ],
      "stateMutability": "nonpayable",
      "type": "constructor"
    },
    {
      "anonymous": false,
      "inputs": [
        {
          "indexed": false,
          "internalType": "address",
          "name": "",
          "type": "address"
        },
        {
          "indexed": false,
          "internalType": "uint256",
          "name": "",
          "type": "uint256"
        }
      ],
      "name": "Received",
      "type": "event"
    },
    {
      "inputs": [],
      "name": "attack",
      "outputs": [],
      "stateMutability": "nonpayable",
      "type": "function"
    },
    {
      "inputs": [],
      "name": "myBalance",
      "outputs": [
        {
          "internalType": "uint256",
          "name": "",
          "type": "uint256"
        }
      ],
      "stateMutability": "view",
      "type": "function"
    },
    {
      "inputs": [
        {
          "internalType": "address",
          "name": "_myaddress",
          "type": "address"
        }
      ],
      "name": "myDonation",
      "outputs": [
        {
          "internalType": "uint256",
          "name": "",
          "type": "uint256"
        }
      ],
      "stateMutability": "view",
      "type": "function"
    },
    {
      "inputs": [],
      "name": "vulnerable",
      "outputs": [
        {
          "internalType": "contract Reentrance",
          "name": "",
          "type": "address"
        }
      ],
      "stateMutability": "view",
      "type": "function"
    },
    {
      "inputs": [],
      "name": "withdraw",
      "outputs": [
        {
          "internalType": "uint256",
          "name": "",
          "type": "uint256"
        }
      ],
      "stateMutability": "nonpayable",
      "type": "function"
    },
    {
      "stateMutability": "payable",
      "type": "receive"
    }
  ],
  "bytecode": "0x608060405234801561001057600080fd5b5060405161094c38038061094c833981810160405281019061003291906100ce565b336000806101000a81548173ffffffffffffffffffffffffffffffffffffffff021916908373ffffffffffffffffffffffffffffffffffffffff16021790555080600160006101000a81548173ffffffffffffffffffffffffffffffffffffffff021916908373ffffffffffffffffffffffffffffffffffffffff16021790555050610140565b6000815190506100c881610129565b92915050565b6000602082840312156100e057600080fd5b60006100ee848285016100b9565b91505092915050565b600061010282610109565b9050919050565b600073ffffffffffffffffffffffffffffffffffffffff82169050919050565b610132816100f7565b811461013d57600080fd5b50565b6107fd8061014f6000396000f3fe60806040526004361061004e5760003560e01c80633ccfd60b14610230578063900a183d1461025b5780639e5faafc14610298578063c9116b69146102af578063f66ad59a146102da5761022b565b3661022b57600060149054906101000a900460ff166100f557600160009054906101000a900473ffffffffffffffffffffffffffffffffffffffff1673ffffffffffffffffffffffffffffffffffffffff1662362a9534306040518363ffffffff1660e01b81526004016100c29190610687565b6000604051808303818588803b1580156100db57600080fd5b505af11580156100ef573d6000803e3d6000fd5b50505050505b600060149054906101000a900460ff16801561011257506175305a115b156101f0576000600160009054906101000a900473ffffffffffffffffffffffffffffffffffffffff1673ffffffffffffffffffffffffffffffffffffffff163111156101ef57600160009054906101000a900473ffffffffffffffffffffffffffffffffffffffff1673ffffffffffffffffffffffffffffffffffffffff16632e1a7d4d670de0b6b3a76400006040518263ffffffff1660e01b81526004016101bc91906106e6565b600060405180830381600087803b1580156101d657600080fd5b505af11580156101ea573d6000803e3d6000fd5b505050505b5b7f88a5966d370b9919b20f3e2c13ff65706f196a4e32cc2c12bf57088f8852587433346040516102219291906106a2565b60405180910390a1005b600080fd5b34801561023c57600080fd5b50610245610305565b6040516102529190610701565b60405180910390f35b34801561026757600080fd5b50610282600480360381019061027d91906105ca565b61040c565b60405161028f9190610701565b60405180910390f35b3480156102a457600080fd5b506102ad6104c0565b005b3480156102bb57600080fd5b506102c4610572565b6040516102d19190610701565b60405180910390f35b3480156102e657600080fd5b506102ef61057a565b6040516102fc91906106cb565b60405180910390f35b60008060009054906101000a900473ffffffffffffffffffffffffffffffffffffffff1673ffffffffffffffffffffffffffffffffffffffff163373ffffffffffffffffffffffffffffffffffffffff161461036057600080fd5b600047905060008060009054906101000a900473ffffffffffffffffffffffffffffffffffffffff1673ffffffffffffffffffffffffffffffffffffffff16826040516103ac90610672565b60006040518083038185875af1925050503d80600081146103e9576040519150601f19603f3d011682016040523d82523d6000602084013e6103ee565b606091505b505090508015610402578192505050610409565b6000925050505b90565b6000600160009054906101000a900473ffffffffffffffffffffffffffffffffffffffff1673ffffffffffffffffffffffffffffffffffffffff166370a08231836040518263ffffffff1660e01b81526004016104699190610687565b60206040518083038186803b15801561048157600080fd5b505afa158015610495573d6000803e3d6000fd5b505050506040513d601f19601f820116820180604052508101906104b991906105f3565b9050919050565b6001600060146101000a81548160ff021916908315150217905550600160009054906101000a900473ffffffffffffffffffffffffffffffffffffffff1673ffffffffffffffffffffffffffffffffffffffff16632e1a7d4d670de0b6b3a76400006040518263ffffffff1660e01b815260040161053e91906106e6565b600060405180830381600087803b15801561055857600080fd5b505af115801561056c573d6000803e3d6000fd5b50505050565b600047905090565b600160009054906101000a900473ffffffffffffffffffffffffffffffffffffffff1681565b6000813590506105af81610799565b92915050565b6000815190506105c4816107b0565b92915050565b6000602082840312156105dc57600080fd5b60006105ea848285016105a0565b91505092915050565b60006020828403121561060557600080fd5b6000610613848285016105b5565b91505092915050565b61062581610727565b82525050565b61063481610763565b82525050565b61064381610787565b82525050565b600061065660008361071c565b9150600082019050919050565b61066c81610759565b82525050565b600061067d82610649565b9150819050919050565b600060208201905061069c600083018461061c565b92915050565b60006040820190506106b7600083018561061c565b6106c46020830184610663565b9392505050565b60006020820190506106e0600083018461062b565b92915050565b60006020820190506106fb600083018461063a565b92915050565b60006020820190506107166000830184610663565b92915050565b600081905092915050565b600061073282610739565b9050919050565b600073ffffffffffffffffffffffffffffffffffffffff82169050919050565b6000819050919050565b600061076e82610775565b9050919050565b600061078082610739565b9050919050565b600061079282610759565b9050919050565b6107a281610727565b81146107ad57600080fd5b50565b6107b981610759565b81146107c457600080fd5b5056fea264697066735822122016783065aeecb72198668aebc5036b2dd3ea0ce8a9e3dbccc4a2471eaa34c9dd64736f6c63430008000033",
  "linkReferences": {},
  "deployedLinkReferences": {}
}